S01300005A425F4C6162355F535A45442E7333370D
S214000000C01A002009480100092600000D2600003D
S214000010A70B0000000000000000FFFF54000000D7
S21400002004180F00000000000000000000000000A0
S21400003000000000000000000000000000000000BB
S214000040000000000000000000000000A701000003
S20800005000000000A7
S214000054C01A002009480100092600000D260000E9
S214000064A70A0A010002000004180FACA067A70143
S2140000740000000000000000000000000000000077
S2140000840000000000000000000000000000000067
S2140000940000000000000000FFFFFFFFFFFFFFFF5F
S2140000A4FFFFFFFF006007000000000000000000E4
S2140000B4FFFFFFFFFFFFFFFF8000000000000000BF
S2140000C40000000000000000000000000000000027
S2140000D40000000000000000244600202446002003
S2140000E4C01A002094FE0200F0AD02006011002049
S2100000F42C11002000E0070000000000B7
S214000200C01A002009480100092600000D2600003B
S2140002101D6A00001126000019260000074801008C
S2140002200748010007480100074801000748010089
S2140002301D26000007480100074801000748010086
S21400024090260000902600009026000090260000D1
S21400025090260000F9410000294F0000902600007B
S2140002609026000090260000FD3F000065890000F3
S21400027090260000902600009026000090260000A1
S21400028090260000902600009026000007480100F7
S21400029090260000553800009026000090260000AA
S2140002A090260000553900002D39000090260000E9
S2140002B0902600009026000090260000D92101001C
S2140002C06521010061210100A1180100D52101006E
S2140002D069210100892101006D2101000748010004
S2140002E01D2201009026000090260000F128000044
S2140002F09026000090260000902600000748010087
S2140003009026000090260000902600009026000010
S2140003109026000090260000902600009026000000
S21400032090260000902600009026000090260000F0
S208000330902600000E
S214000334F8B500BFF8BC08BC9E467047F8B500BFC9
S214000344F8BC08BC9E46704710B5054C237833B9F4
S214000354044B13B1044800E000BF0123237010BD12
S214000364282200200000000024F7020008B5034BF2
S2140003741BB10349034800E000BF08BD00000000AD
S2140003842C22002024F70200154B002B08BF134B29
S2140003949D46A3F5803A00218B460F461348144A1F
S2140003A4121A2AF001FD0F4B002B00D098470E4B73
S2140003B4002B00D098470020002104000D000D48B3
S2140003C4002802D00C4800E000BF2AF0AFFC200052
S2140003D4290008F0EFFC2AF095FC00BF0000080096
S2140003E4C01A0020000000000000000028220020A0
S2140003F424460020000000000000000013B5044658
S2140004042A4901200AF060FE042C4CD8DFE804F0E8
S214000414031524263600264901200AF055FE4FF41B
S2140004249673032200930521002000F03DFA012371
S214000434204A1370204A137006E002221E4B1F49FE
S21400044401201A700AF040FE4FF47A711C4802B07C
S214000454BDE8104018F080BF1A49DDE71A490120AC
S2140004640AF032FE4FF4967303220093052100200F
S21400047400F01AFA0222104B1A70E5E70D4B1B78AF
S2140004848BB1124901200AF01FFE4FF49673032223
S21400049400930521002000F007FA0322064B40F6DD
S2140004A4B8311A70D2E702B010BD00BFFDAD02002D
S2140004B412AE0200442200204522002025AE02008F
S2140004C44C3E002037AE02004CAE020060AE020086
S2140004D437B5054698B101280FD1134B1A782AB1BF
S2140004E40022014602201A7000F05EF996230122CB
S2140004F400930521002000F0D7F903B030BD012495
S214000504094B22461C7096232146009300F0CCF932
S214000514204606490AF0D8FD2946022003B0BDE865
S214000524304000F041B900BF581C0020F0AD020076
S21400053408B5084901200AF0C7FD00F087F9064807
S21400054400F04AF8054800F07FFABDE80840044881
S21400055418F0F6BE74AE020001040000D5040000D4
S2140005644C3E002000221A4B13B51A70194B1A7809
S2140005741C46012A12D003D3032A16D002B010BD9B
S21400058409F0ECF938B9C82303220093012100F0DE
S2140005948BF900F027F802232370EFE702221A7083
S2140005A402B0BDE8104000F0BDB802221A7009F08F
S2140005B4D5F940B100F015F914F0DAFC02B0BDE844
S2140005C410401BF0F3BE02B0BDE8104002F0ECBAD7
S2140005D44C3E002045220020014B1860704700BFA7
S2140005E44822002008B509F0B9F930B9BDE808403A
S2140005F44FF4FA61014818F0AFBE08BD543E00201F
S214000604002208B5054B1A7009F0A8F928B907F0B6
S2140006143DF8034A13680133136008BD543E0020B6
S2140006244C22002038B505461F4901200AF04CFD2F
S214000634902D15D11D4B1E4C186858B107F066F85E
S21400064423682BB1022098471A4901200AF03CFD82
S214000654002038BD2368002BFAD098471649F4E7E3
S21400066409F07CF9044698B9114B1B682BB1042099
S2140006749847124901200AF027FD942DE8D1104925
S21400068401200AF021FD0A4B01201B689847DFE78A
S2140006940328F2D10B4901200AF016FD044B20462C
S2140006A41B689847E9E700BF7EAE02004C22002094
S2140006B4482200209AAE0200AFAE0200C2AE02008C
S2140006C4EAAE0200D6AE020030B51C46002305464C
S2140006D4104691B08DF80D308DF80E309DF85030E0
S2140006E48DF80C102246014604A88DF80F30043409
S2140006F42AF04FFB03AB00930194044B01222946D6
S21400070410200AF043FB11B030BD00BF0AAF020050
S21400071410B514460AF0A8FB2146BDE81040002098
S2140007240AF098BB30B501241E4B89B05968186886
S21400073405AA03C2197A53F8090F11701B7903909E
S2140007448DF810308DF80B4009F008F9022826D1F0
S2140007544225092305AA052100200095FFF7B4FFCA
S214000764002221462046FFF7D3FF052303AA0421CF
S21400077400200095FFF7A8FF002221462046FFF739
S214000784C7FF20230DF10B020093214600202346C9
S214000794FFF79AFF002221462046FFF7B9FF09B06B
S2140007A430BD00BFFCAE02007FB51026054604AC83
S2140007B404F8011D01232246009602214FF4A0608E
S2140007C4FFF782FF284600220121FFF7A1FF0096CB
S2140007D4234601224FF4A06128460AF047F904B0E4
S2140007E470BD1FB50223002000934FF48A5203AB5A
S2140007F448F234018DF80D0000F0B8FF05B05DF83E
S21400080404FB00004823584301230E4970B53025E5
S2140008140A18085C51680C4C03FA01F641F2100100
S21400082405FB00404650107ED66905FB004003FADF
S21400083406F6465092F83000526B934005FB004291
S214000844535070BD5C1C002000C0034070B5124DB0
S21400085400242E462919285D0023042249681834EA
S21400086405F0C8F8482CF5D100243019C16C0023D3
S214000874042290F84800183405F0BCF8482CF4D14B
S2140008840020FFF7BFFF0120FFF7BCFF034B044A1D
S2140008941A60044A5A6070BD5C1C00209C3E00200E
S2140008A4943E00205C3E002030B41824084D04FB1F
S2140008B400540125E360029BAA402361054B227580
S2140008C42572617253F8200030BC18F039BD00BFA1
S2140008D4643E00209C3E002018222DE9F047404D3F
S2140008E4044602FB0052137D3E49002B59D013F0F8
S2140008F4010F4FF0480332D003FB00134FF0010EF4
S2140009040021302741F2100842F2100992F809C07B
S214000914354E1A78586807FB02624CFA01FA1AF048
S214000924010F0EFA00F001F1010114BF42F80900AC
S21400093442F80800032903F11803EAD1182303FB3D
S2140009440453D968294B53F8240018F005FD1823DE
S21400095403FB0454237D013B2375BDE8F087434322
S214000964C818CE5C01234FF0300C41681E4F03FAC2
S21400097401FE41F210010CFB067646F801E090F801
S21400098418E0C6690CFB0E7E03FA06F64EF8016004
S21400099490F83060406B83400CFB0670435011693E
S2140009A4D0E7137248235C43012330250A19085DF7
S2140009B451680D4C03FA01F641F2100105FB0040A4
S2140009C44650107ED66905FB004003FA06F64650EC
S2140009D492F83000526B934005FB00425350BCE73C
S2140009E4643E00205C1C002000C003409C3E0020A7
S2140009F40020044B1870044B1B7A012B01D1FFF71F
S214000A046BBF7047943E0020643E00200022054BD6
S214000A141A70054B93F82000012801D1FFF75CBF3C
S214000A24704700BF5C3E0020643E002007B50123EB
S214000A340022CDE9002304220220114604F094FF8C
S214000A4403B05DF804FB000010B5044602F050FF46
S214000A54002301220421022004F0CCFF04490420D0
S214000A6402F054FFFFF7E2FF024B1C6010BD00BF0C
S214000A74AD0A00005022002007B5034620B103B09B
S214000A845DF804EBFFF7D2BF0422CDE9000011465F
S214000A94022004F069FF03B05DF804FB014B1878EC
S214000AA4704700BF5422002010B50E4904460120AA
S214000AB40AF00AFB01220C4B042C1A7010D1FFF723
S214000AC4EDFF68B10222094B00201A70FFF7D4FF2D
S214000AD400230748C8210370BDE8104018F03CBC4A
S214000AE410BD00BF0CAF020054220020A43E00201C
S214000AF4A83E002070B500241C4D1D4E2B78347083
S214000B04032B1CD0042B24D0022B2ED1FFF7C6FFB8
S214000B1488B1184901200AF0D7FA03232B70164B24
S214000B241B680BB10120984741F288311048BDE894
S214000B34704018F011BCBDE87040FFF777BF0F4B4C
S214000B441C7004232B70FFF771FF47F230513046B8
S214000B54EDE7094D2B6843B1012009490AF0B4FAC0
S214000B642B682046BDE87040184770BDA43E0020A0
S214000B74A83E002020AF020050220020542200206D
S214000B8432AF020030B50024144D85B02C7008F046
S214000B94E5FE022817D100900DF10E03224603212C
S214000BA4012009F0B4FFBDF80E0048B1204601F05C
S214000BB470FD4FF47A61284618F0CEFB05B030BDC0
S214000BC401F066FDFAE706F061FD054B0090054A64
S214000BD4054901200AF078FAF0E700BFB83E002085
S214000BE446AF02004CAF020051AF020008B508F051
S214000BF4B5FE02280CD10022064B01201A7005F01F
S214000C0413FEBDE808400246034901200AF05CBA18
S214000C1408BD00BFB03E00209FAF020013B50446D7
S214000C2400900A4B0A4A0B4901200AF04DFA5CB1BF
S214000C342246094901200AF047FA0094074B084A5D
S214000C44044901200AF040FA02B010BD65AF020064
S214000C544CAF020051AF02006EAF020046AF020076
S214000C649AAF020038B5C37B05460BB1832038BD66
S214000C74C47C2CB900F0DAFD20B9EB7B002BF5D14F
S214000C848120F4E72046F2E7C37B10B504460BB197
S214000C94832010BDC37C1BB1012B10D08120F8E744
S214000CA4017D82898B1C9A420CD380680AF06FF906
S214000CB405F02CFF40B9E37B002BE9D1EEE705F005
S214000CC43DFFF7E78020E4E70020E2E738B5C37B82
S214000CD40446002B437D14BF8325C325012B11D165
S214000CE40368028A5988587909F0B6FA50B123681D
S214000CF45B88032B02D1E37B13B18325284638BDDA
S214000D048125FBE7637D002BF8D12368228A598866
S214000D14587909F098FA0028F0D023685B88032BEA
S214000D2409D0B3F5A06FE6D0002BE7D12046BDE886
S214000D343840FFF797BF2046BDE83840FFF7A4BF0A
S214000D44012070470120704701207047704700203B
S214000D54704700207047002070470020704700202E
S214000D64704700207047002070470120704701201C
S214000D74704700207047002070470020704700200E
S214000D847047002070470020704770470020704767
S214000D9484207047704700207047704770470020D3
S214000DA470477047002070477047704700207047B0
S214000DB400207047034B1B681878012808BF0220E0
S214000DC4704700BFBC360020002070470346012051
S214000DD4024AC3E9032000221A7070470100FEFF8E
S214000DE4704700207047002070470020704700209E
S214000DF47047002070477047B52070470020704742
S214000E04002070470020704770477047704770474F
S214000E1400207047704770470023FF21084A13706C
S214000E2482F8783082F8653082F8773082F8793044
S214000E3482F87A1082F87B30024A1360704700BF4B
S214000E4455220020C03E0020F8B50D468C680A687E
S214000E5406462849202002F088FA6B687BB92649A2
S214000E64202002F082FA202007F060FB234920208D
S214000E7402F090FABDE8F840202007F057BB002E99
S214000E84F1D01F4D1F4E204F013C14F8013F23B9EB
S214000E941A49202002F07EFAE5E7752B18D0762B47
S214000EA418D0772B18D0732B18D0722B18D0712B20
S214000EB418D0622B18D06E2B18D02A2B18D01349B2
S214000EC4134A212B18BF1146202002F04EFADCE705
S214000ED42946F9E73146F7E73946F5E70D49F3E7DA
S214000EE40D49F1E70D49EFE70D49EDE70D49EBE74D
S214000EF40D49E9E716CB020059B002000AB0020019
S214000F0417B002000BB0020022B0020063B0020069
S214000F1460B002002EB0020038B0020043B00200F7
S214000F244EB0020058B002005DB00200F0B50026D4
S214000F34204A92F87B30184452FA80F090F865C044
S214000F4490F8665030461C4BA5EB0C051F78EDB2A6
S214000F54F4B2A54225D90CEB060313445B7811B111
S214000F640CB92D2B17D0782B1FD0582B05D108B1D0
S214000F7437240AE0013C012C14D9602B17D8402BE7
S214000F84F6D83A2B34BF302400241B1BDBB29F4216
S214000F9403D900FB07300136DAE70523002082F880
S214000FA47930F0BD10270020F5E70028E2D057245A
S214000FB4EBE700BF55220020EC1C0020FFF72CBFF7
S214000FC438B5054601460120FFF73EFFD5E9014343
S214000FD46CB91C46084D236863B12946202002F0EC
S214000FE4C4F921460020FFF72FFF0C34F3E71B78E3
S214000FF46E2BEFD038BD00BFC8AF020008B5044959
S214001004202002F0B2F9BDE80840202007F08EBA8E
S214001014CBAF020038B5FFF7F1FF0024054D611988
S2140010240C34631953F80C3C03B938BD0020FFF7A1
S2140010340BFFF4E768B502002DE9F84F1F4B204D6F
S21400104453F820201F49202002F08FF92B681BB983
S214001054BDE8F84FFFF7DEBF1B4FFFF7CFFF0026B4
S214001064B946DFF86CA097F87B30F4B2013B9C429B
S21400107404DB2868BDE8F84FFFF7A2BF47FA86F3FB
S21400108493F8658000234C44C84494F8662094F88A
S214001094651003F1010B521ADBB2D2B2934205D3A8
S2140010A40A49202002F061F90136DCE743445A7805
S2140010B45146202002F059F95B46E6E7F01C002072
S2140010C4C03E0020C0AF020055220020C9AF020077
S2140010D4C5AF02002DE9F74F884C94F87730002B03
S2140010E400F0A180864B671C1B7813F0010F1FD0FD
S2140010F40025844E14E0631993F8662093F865304F
S2140011042020D21A44FA85F393F86510D2B23944F3
S21400111407F007FA3146202002F027F90135EDB230
S21400112494F87730AB42E6D87749202002F01DF9D0
S214001134002694F87730DFF8DCE10193734B4FF028
S2140011440008714645461EF8012B91F801C007EBCE
S214001154020AACEB020C5FFA8CFC1868002852D02A
S2140011640138D14619E02AB9002D4AD04FF00108BB
S2140011740C33F2E719F8011BA1F1410BBBF1190F6F
S21400118498BF2031A2F1410B98BFC9B2BBF1190F29
S2140011949CBF2032D2B28A42EAD1A9EB0A01614549
S2140011A410F8012FDFD1002ADED11D46584B013638
S2140011B41D6094F87B30F6B2013384F87B30D5E9B1
S2140011C40123002A35D01B786E2B31D03F2B23D039
S2140011D44FF000094FF0070BC846042394F8771025
S2140011E4AA68B14212F808702BD8AFB1904498F8A8
S2140011F401302A2B10D0212F1CBF032384F879300A
S2140012040AE01D46B4E7B8F1000F01D1002DCDD198
S2140012140223002584F8793094F87900002869D1EF
S214001224686809F029FE03B0BDE8F04FFFF7F4BD87
S2140012341346019AB24282D803221D4684F87920C6
S214001244EAE7732F09D8712F0BD2212F1FD0622FF4
S2140012543CD0002F4BD1032246E0A7F17502022AA8
S21400126445D8752F29D0762F2AD0732F2BD0722FDE
S21400127447F6FF7A18BF4FF0FF3A0121484601931C
S214001284FFF754FE5045019B01D984F87930AA68CB
S214001294424452782A2A94F879201CBF08F101089F
S2140012A45FFA88F8002AB7D1212F1FBF013609F14B
S2140012B40109F6B25FFA89F990E74FF0FF0ADCE716
S2140012C44FF6FF7AD9E74FF07F0AD6E794F87B20EB
S2140012D44A4454FA82F292F8652022445278222A2A
S2140012E4D5D07B2AD3D0052284F87920CFE784F89A
S2140012F479B0CCE7FFF7A0FE95E700BF55220020A3
S214001304D1220020C9AF020008B0020068B502006E
S214001314C03E0020BA2200202DE9F34106460D46C1
S2140013244FF000085C4C5D4F66B90DF10701284686
S21400133407F0F2F878B1262800F0A980012384F893
S21400134479304BE0002D00F0A28016F8013B013DF9
S2140013548DF80730EDB23A789DF807300D2A3B70C9
S21400136401D10A2BE0D00D2B0CD0A3F10A02514276
S214001374514122788846042AD6D8DFE802F0051DB3
S214001384263C31000121F4E721B1FFF7A3FE4FF01C
S2140013940108C9E7202B63D0222B07D10223237030
S2140013A494F87820642A5DD10623C8E77B2B01D104
S2140013B40323F4E70123F2E709B9202BF0D194F8CC
S2140013C47730112B3FD10323B9E7222BF7D000291E
S2140013D4E6D005234FF0010884F8793004232370FF
S2140013E4B8F1000FA0D094F8790008B1FFF724FEF6
S2140013F4FFF712FD98E77D2B94F87A0003D1FF28B7
S214001404DDD005239BE7602B13D8402B13D8392B4C
S2140014148CBF002230229A1AD2B20F2A10D8FF2884
S2140014240BD0FF2302EB00128DF8072084F87A30E5
S214001434B6E75722EFE73722EDE784F87A2073E71A
S214001444202BDED170E70133DBB294F8782084F8E1
S2140014547730234483F8652000232370002994D131
S214001464884661E72378012B09D19DF80730A3F15C
S214001474410119299CBF2033DBB28DF807309DF853
S2140014840710A3180132597084F878204CE74046B8
S21400149402B0BDE8F08100BF55220020D222002011
S2140014A449BA89B24840C0F303114140080380B2E8
S2140014B44840C3B280EA4310704714F06FB97047CF
S2140014C4704770477047704770477047704770475B
S2140014D470477047704770470020704770477047E2
S2140014E40020704770477047002070477047704769
S2140014F470470020704770470120704701207047EE
S2140015047047704770477047704770477047884207
S214001514F0B54FEA92031AD804460D469BB29E00D5
S214001524871904370434BC4205F104053AD1C3EBE9
S2140015348333314402EB8303013E304411FA83F3D0
S214001544994220D011F8012B00F8012FF8E7541E19
S214001554204421440D4604469BB2A0EB8306043E79
S214001564043CB442A5F104050ED16FF003045C43B9
S214001574C3EB833302EB830321449BB20134204440
S214001584CB1A994209D1F0BD2F792771EF78E7700D
S214001594AF78A7706F786770E2E711F8012900F852
S2140015A4012DEEE715F804CC04F804CC15F803CCAA
S2140015B404F803CC15F802CC04F802CC15F801CCD8
S2140015C404F801CCAEE70244904200D1704700F81C
S2140015D4011BF9E710B5013801390AB9104606E0CF
S2140015E410F8014F11F8013F9C4201D0E01A10BDDB
S2140015F4013A92B2F1E7000082B2074B4AB1000CFE
S2140016041A8008BF4FF6CE22044B14BF18801A80E7
S21400161470474BF6EF62F2E7C01D0020C21D0020A3
S214001624094B1888020448BF80F0620042001A8002
S214001634064A1388190444BF83F4805383F00B03CB
S2140016445900118058407047C01D0020C21D00205C
S2140016540022034B1870034B1970034B1A70704723
S214001664DC220020DB220020DD2200202DE9F04FC2
S214001674234E85B0337807468846002B3DD04FF678
S214001684FB73204D98422C7803D952211E4800F053
S21400169459FC1E4B4FF0000B9A4632785FFA8BF9D2
S2140016A44A45187811D9484402A9C0B2019320F0DB
S2140016B46DF9082241460DEB0200FFF78BFF0BF194
S2140016C4010B019B0028E8D14C462B78A34207D196
S2140016D4631C3278DBB29A422B7004BF00232B7053
S2140016E49AF8003041461C44E4B2204620F076FACC
S2140016F418B93946204620F017F905B0BDE8F08F32
S214001704DB220020DD220020EEB00200DC220020D6
S214001714034B18780130C0B2187000F07F00704791
S214001724DE22002030B5002485B0ADF80A20021D64
S21400173492B2012A1D46ADF80840ADF80610ADF881
S214001744044003D94FF6FF72904207D1064A2B464F
S214001754127801A91EF0AAFA05B030BD014601AA06
S21400176420461EF069FBF7E7C41D0020F8B51C46AA
S2140017740E4617460546FFF7CBFF9DF81810207057
S214001784204618F05FF9FF2804460BD003463A4675
S21400179428463146FFF7C6FF0546204617F0F4FFF5
S2140017A42846F8BD1825FBE708B5FEF7C1FE0AF083
S2140017B49BF9BDE8084004F0C1BE08B5FFF7E5FA9A
S2140017C40AF0BCF904F0E8FFBDE8084005F028B9C3
S2140017D470477047FFF709BB0020704738B50446CA
S2140017E40D46FFF717FB29462046BDE8384007F0AC
S2140017F413BBFFF7FCBAFFF705BB002307B5CDE91B
S2140018040033012369464FF0FF308DF802300BF0A9
S21400181441FC003018BF012003B05DF804FB012032
S21400182470470120704701207047000010B5084C2F
S21400183423681B68587908F04AFE23681B685879A1
S214001844FFF7ABFA00200AF0FBFA012010BD00BF38
S214001854A04300202DE9F84F80460D4614469946CD
S214001864164E06F1010A0DB9BDE8F88F102D4FF09B
S2140018740D02494650462F4628BF1027FFF747FE5D
S2140018840123337000230D48F473B37320F03EFA3B
S214001894424601340A495FFA87FBE4B212F8013B78
S2140018A411F8010F434002F8013CA2EB0803DBB237
S2140018B45B45F3D3ED1BADB29046D4E7E32200209C
S2140018C4E22200202DE9F04F4FF00209364D85B094
S2140018D403930F9B174601900D220E460146681C83
S2140018E4BDF838800293FFF712FE49234C46AA46F9
S2140018F42B7028464FEA1823AB7385F80F8020F028
S21400190405FA2B7883EA17232B706B787B406B7071
S2140019144FF0000B21E0C4F1100CA7EB0B031FFAE9
S2140019248CFC9BB2634528BF63463046A11B00EB84
S214001934010C5FFA8CF2A0EB060C1FFA8CFC9C459B
S2140019441BD31C44E4B29B44102C1E441FFA8BFB8E
S21400195403D1284620F0DAF90024BB45DBD314B1C2
S214001964504620F0D3F9B9F1010F4FF00004039E5E
S21400197447460BD04FF00109CAE710F801CB1AF816
S21400198402E08CEA0E0C0AF802C0D0E702980422A1
S2140019940549FFF7BCFD22460421019B029805B0C9
S2140019A4BDE8F04FFFF756BFE3220020F7B5099FC6
S2140019B4BDF820400646CDE900471D46FFF782FFE6
S2140019C42CB13346012221462846FFF743FF002068
S2140019D403B0F0BD2DE9F7431E46054688469146FA
S2140019E4BDF828700D4C0346394630460122FFF7F1
S2140019F431FF33464A4641462846CDE90074FFF790
S214001A0461FF042221460B98FFF7E4FD002814BF6B
S214001A147E20002003B0BDE8F08300BFDF22002054
S214001A242DE9F3410C4615461E468046084F991884
S214001A34214438460422FFF76AFDCDE9006763199E
S214001A442A4621464046FFF7C5FF02B0BDE8F081AE
S214001A54F32200200020704700207047704770472C
S214001A6473B502AB03E906000446019D17F040F97E
S214001A740646204617F04AF99DF800008EB1202C41
S214001A840FD82B78012B37D84FF6FF75394903EB5F
S214001A944313234431F81320AA4202D0013221F81A
S214001AA413204FF6FF72344B344933F8146031F880
S214001AB4145096421CBF721C23F8142004F0FD0236
S214001AC4092A31D19A8A898A02448A42B4BF9A8200
S214001AD4998233F81430AB4204D3AE4202D2204685
S214001AE4FFF75CF90025264BEA5CA24228D00135B4
S214001AF4112DF9D102B070BD022BD2D14FF6FF7171
S214001B044FF6FF751B4B33F814208A421CBF013274
S214001B1423F8142004F1210233F81210A9421CBF42
S214001B24013123F81210BCE71D2CD2D15A8F11189C
S214001B34A942BDBF02F1FF3212185A875D87C8E773
S214001B4413F0E7FA0F4B04461B78834203D8DD21D3
S214001B540D4800F0F7F94FF6FF710C4A04EB041435
S214001B642C4432F814308B42C4D0013322F814309B
S214001B74C0E700BFBA3F0020683F0020163F0020A1
S214001B84F8B50200A51D002074B50200F43E00203E
S214001B94522200210148FFF716BD00BF683F00200F
S214001BA45222FF210148FFF70EBD00BF163F00205A
S214001BB408B5FFF7EDFFBDE80840FFF7F1BF0000EA
S214001BC4032310B50F4C4FF48062C4E904330E4B64
S214001BD40E49E3610023A16121660D49E01DC4E9B5
S214001BE419120C49A3626362E3622367E3666367C0
S214001BF4226229F0E1F80849204629F0DDF820237E
S214001C04A37110BD40400020F726002009B602004C
S214001C14F722002012B6020016B602002DE9F84F8D
S214001C241F4B16461A7881468A4698460AB9FFF725
S214001C34C7FF182707FB09873D6FD7F86CB05D45CB
S214001C442BD9BC6E796E641BB44228BF3446294433
S214001C545046224629F09DF8BB6E2544AB4208BF89
S214001C640025A244361BABEB050B5E4528BF5E463B
S214001C7456B1182303FB0983596E3246294450464D
S214001C8429F087F83444354424B1182303FB098823
S214001C94C8F870502046BDE8F88F0024E3E700BF7C
S214001CA44040002010B50B46EFF311844FF020019E
S214001CB481F311881946FFF7B1FF84F3118810BD2C
S214001CC42DE9F84F144D9B462B788146884692465C
S214001CD40BB9FFF775FFEFF3118C4FF0200181F37A
S214001CE41188002018236F6903FB0054666E2EB11A
S214001CF401308742F8DC4FF0FF3009E08742FADD16
S214001D04C4E91898C4F868A02667E666C4F874B0F0
S214001D148CF31188BDE8F88F40400020FFF750BFD1
S214001D2470B54FF060441A4B00261A68194D42F0FD
S214001D3401021A60DA680C2042F08072DA60164BF0
S214001D44C4F8B03F0223C4F8006EC4F8806EC5F829
S214001D54F03003F07BFA114B00F5D52000F2FC407E
S214001D64B0FBF3F00E4A0F4B01382861C4F8406EFE
S214001D741A600D4BC4F8803E4FF48073C5F80433E4
S214001D84D4F8003E43F48073C4F8003E70BD00BF30
S214001D94F0ED00E0000004E055CEACC5F8590D00A7
S214001DA4FF030040001000E00D00010010B5012400
S214001DB40E4B00201C6003F0D5FD234604220321AD
S214001DC4002003F017FE20460AF074FEFFF7A8FF73
S214001DD40AF071FEFFF7A2FF234640220449054895
S214001DE4FFF76EFF044B1860C00F10BD44D40340C9
S214001DF4F72A00201DB60200C81D0020024B1868F2
S214001E04003018BF01207047F0ED00E0D123054AEA
S214001E14037013784170090A8170591CC3701170DD
S214001E2404207047372B00202DE9F74F354E074620
S214001E3433681C5C032C63D9DFF8CC8012F09AFD5F
S214001E444FF6FF7A0025C1460534E4B20190D8F86F
S214001E5400204AB1AC4207D912F08CFD019BC01A8F
S214001E6480B2B0F5FA7F05D9601B18BF012003B015
S214001E74BDE8F08F002D3DD0012D1DD14FF0020B93
S214001E843268D55D4FF06042D2F8801ECB0711D57C
S214001E941146D9F80C0040F08070C9F80C00D1F84F
S214001EA4000E40F48070C1F8000E086A0028F0D0D6
S214001EB482F820505D46CAE7E21E05F1010B954202
S214001EC45FFA8BFB02D15FFA8AF5DBE7A21E954226
S214001ED402D1CAF30725D5E7621E95420ED0A91E85
S214001EE4C9B2384617F024FE51460546FFF7D8FA1D
S214001EF48246C7E75B254FF0010BC3E75D25C1E7C4
S214001F040120B4E75C1D0020F0ED00E010B50B4B9B
S214001F1490B0402269461868FFF7C4FE58B1C1B2B3
S214001F24684617F08FFD0446014612200AF06EFA42
S214001F34204617F029FC10B010BD00BFC81D0020B5
S214001F4442DE704738B504460D4600F0D1FC03F077
S214001F5464FC294620460AF025FA2B462246054903
S214001F64012006F0E9FA29462046BDE83840FFF786
S214001F74E7BF00BF2DB602006D4B2DE9F0415A684D
S214001F846C4CA2655A6AE2656B4AD2F80012216666
S214001F94D2F8042262669A6AA266DA6AE2661A6B63
S214001FA422675A6B6267A26BDB6B12F0040FA3679F
S214001FB4D4E90F5318BF1D4612F0C0FC0022854218
S214001FC40346606522655DD35C4A95425AD8AA6981
S214001FD46264E969A164B4F85810C1F308010629DB
S214001FE454D157498A4251D356498A424ED211880F
S214001FF44DF64262914249D140F201706268C4F8DB
S2140020049420A268C4F898204F4A5049934238BF97
S21400201413460A468B423CD3D31AE3640023C4E92E
S2140020241F33C4E92133C4E92333484E444FDFF851
S21400203414C1AE4233D8D4E91FC7D4E92165D4E924
S21400204423124FF0000E013BDBB2FF2B42D1BEF150
S214002054000F05D0C4E91FC7C4E92165C4E92312EB
S214002064B4F85830C3F30803052B57D03CD8032BD9
S21400207447D0042B58D040F60722013B4B2B98BF81
S214002084104640E000221D46C4E911224FF42060A9
S214002094BAE71E68B6F1CD3FBED10433BAE756F8A8
S2140020A4042DBA42C5D36245C3D2D107C1D5002197
S2140020B404EB010EDEF87CE09645BAD0043118290C
S2140020C4F6D10BB9052301E0013BDBB204EB830137
S2140020D4CA67AEE7E0464FF0010EBC4637462E46CA
S2140020E40D4611464246AEE70C2B1AD03B2B0CD0BD
S2140020F4062BC0D140F60423B0F5206F08BF18465F
S21400210401E040F60120BDE8F081114B9B6913F015
S214002114020F40F2025318BF1846F4E740F60320B5
S214002124F1E740F60520EEE740F60220EBE700BFB5
S21400213400ED00E00000002000E100E0A01A00200E
S2140021444C030000F0AD02009C000020C01A0020E2
S2140021540080014A10B503F07FFD044603F074FDC9
S2140021640022012101FA02F3234014D01B4B33F85A
S21400217412301B4A062B13D040F207218B420DD196
S214002184184919480C68844208D14CF23C334B80F9
S2140021940B88138012E00132102AE3D1104AF8E7C4
S2140021A44FF20F010F4B5888884214D11988B1F5A5
S2140021B4406F10D211804CF23C325A80084B1A8879
S2140021C440F201739A4201BF084B094AD2E9000162
S2140021D4C3E9000110BD4FF4C061EBE740B602004E
S2140021E4402B00200000002007020FF0382B0020B0
S2140021F494000020014B1888000A7047402B0020EA
S214002204014B1888704700BF402B00202DE9F04F83
S2140022144D4C0546A36BD4F850B05A0747BF002769
S214002224B846D4F84CB0D4F85480D4F840A05DBF77
S214002234464FD4F83CA0DFF83C91DFF83C9113F00D
S214002244080F434B434A18BF1A46B7EB08061FBF8E
S2140022546421730801FB0B33B3FBF6F387B01CBF92
S2140022649BB205933C494B46CDE9017ACDF80080F4
S21400227408BF059601F08EF8B3B2CDE900931FFAB5
S2140022848BF2059B3549284601F084F8A36B5B075F
S2140022940AD49C3E5E4507D1626D314B9A4203D206
S2140022A43049284601F076F8BA4501D8C24504D22A
S2140022B44A462D49284601F06DF8284606F036F9B8
S2140022C4236E0BB9636EBBB32849284601F04DF85C
S2140022D400260127DFF8A480DFF8A490226E07FA10
S2140022E406F3134207D058F8262013781BB1494644
S2140022F4284601F03AF80136202EEFD100260127B1
S214002304DFF87880DFF87890626E07FA06F31342F7
S21400231409D008EB8603D3F8802013781BB149460E
S214002324284601F022F801361D2EEDD1284607B0C6
S214002334BDE8F04F01F028B828460D4907B0BDE8BF
S214002344F04F01F027B800BF00000020C01A00209C
S21400235447B902004EB9020056B9020084B9020019
S2140023649C000020BDB90200E9B9020007BA0200C9
S21400237436BA020042B9020005CF02004CBA020087
S21400238415CB02002DE9F8430446FFF739FF40F663
S2140023940123984239D010D840F2025398421DD0F7
S2140023A440F20173984224D040F20153984213D16C
S2140023B46549204600F0EEFF22E040F603239842EB
S2140023C46CD03DD340F60423984200F09C8040F63F
S2140023D40523984200F0B580BDE8F8835B492046A3
S2140023E400F0D8FF5A4B5B495A6C204600F0D2FFE7
S2140023F406E0574A5849D2E92523204600F0CAFF8A
S2140024042046BDE8F84306F091B8514D534920469E
S21400241400F0C0FF95F86C309F0703D5504920465E
S21400242400F0B8FF95F86F305E0603D54D49204698
S21400243400F0B0FF95F96F30002BE1DA4A49B8E7AF
S214002444434D4A49204600F0A5FF95F868309807A2
S21400245404D06A6C3F49204600F09CFF95F968302A
S214002464002B04DA6A6F4249204600F093FF0026E8
S2140024740127DFF80881DFF81491AA6E07FA06F33D
S214002484134207D058F8262013781BB14946204635
S21400249400F080FF0136082EEFD1B1E72C4D354908
S2140024A4204600F077FF2B496A6C204600F072FF46
S2140024B495F86930590703D52F49204600F06AFF7E
S2140024C495F96930002B04DA6A6F2949204600F032
S2140024D461FF0826294FDFF8B480AB6EF340DA07B5
S2140024E407D557F8262013781BB14146204600F03E
S2140024F451FF0136102EF0D195F86830002B7FF48A
S2140025047FAF1F4955E7124D1E49204600F042FF93
S2140025146A6C1049204600F03DFF1026174FDFF87E
S2140025246C80AB6EF340DB0707D557F8262013788C
S2140025341BB14146204600F02DFF01361A2EF0D17D
S2140025445EE711494BE700BFD1B602000EB70200A2
S214002554000000203EB7020057B7020071B7020021
S21400256489B70200C3B70200F6B7020032B8020009
S21400257457B802007BB8020092B8020060B60200A8
S214002584D8B8020008B9020021B9020073B80200E4
S2140025942DE9F84F06460025154C164FDFF85C80EB
S2140025A4DFF85CA023785FFA85FB0BB9BDE8F88FEB
S2140025B457F8043B22461049304600F0D6FE2278EF
S2140025C404F1010982B9627882B10BF00301032990
S2140025D40CBF41465146304600F0C7FE304605F073
S2140025E4A5FF01354C46DDE74C46E8E74146F2E7F1
S2140025F440BB020004000020C8B6020008B0020077
S2140026041FD0020000F00CB800F00AB800F008B8BA
S21400261400F006B800F004B800F002B800F000B805
S21400262472B61EF0080F09D01EF0040F0DD0DFF8A6
S21400263450E0AEE8FF1F6FF002000CE0DFF840E069
S214002644AEE8FF1F6FF00E0005E0DFF834E0AEE8FA
S214002654FF1F6FF006006946EFF309828EE8070055
S21400266486460848084C854501D3A54501D384F31E
S2140026740888FFF781FC84F3088812F03BF9000011
S21400268404000020A0110020C01A0020FFF7C6BFD7
S214002694704770477047000000F07E63B3F17E6FAA
S2140026A470B505460E46144616D104F03DFD18B125
S2140026B49A210D48FFF746FC22463146C5F30B0027
S2140026C403F086FB044604F03BFD5CB19D21BDE8A7
S2140026D470400548FFF736BC520812F0A9F808B156
S2140026E48F21F4E770BD00BF62C2020037B57F2AAF
S2140026F414BF154600254BF234629142044619D1A4
S2140027047F2241F2020168460823FFF7EFFF082202
S21400271425496846FEF75EFF30B908237F2241F25A
S214002724F0116846FFF7E2FF082269462046FEF7E6
S214002734EEFE09E041F2F01291421AD11B4901382B
S2140027448A6CC96C1D1F0BB903B030BD013B9D429A
S21400275400F8012F4FEA1222F5D1002203349A42E0
S214002764F2D00132042A04F8011F4FEA1121F6D1EF
S214002774EAE701F47042B2F5805F07D1C1F30B04B7
S21400278404F17E649AB203FB0541D0E701F460428B
S214002794B2F5005FD8D1C1F30B0405499AB22144BF
S2140027A403FB0511C3E700BFDCC202000080E00F94
S2140027B400E0070070B5054616461C46DBB14BF232
S2140027C43463994210D1082C28BF08247F2241F292
S2140027D402012346FFF78AFFA2B207492846FEF7FE
S2140027E4F9FE40B941F2F011234632462846BDE8C8
S2140027F47040FFF77BBF70BDDCC202002DE9F743D3
S2140028040446E0070F46154603D5DD213448FFF796
S21400281499FBE90703D5DE213148FFF793FB04F45F
S2140028247043B3F5805F3ED1C4F30B0404F17E64B9
S2140028346B1E2C4A23449342264603D9E321284898
S214002844FFF780FBDFF8989006EB050846453DD178
S214002854A2070ED04FF6FF7337F8022B02A943EAFD
S2140028640243A01E41F8043D0422FFF715FF02347C
S214002874023DAB070ED0023D25F00103FB5A02A928
S2140028846FEA03436FEA1343042241F8043D6019D8
S214002894FFF702FF25B12A4639462046FFF7FCFE1D
S2140028A403B0BDE8F08304F46043B3F5005F05D1DC
S2140028B40D4BC4F30B041C442646C3E7EA21084820
S2140028C4FFF740FB6FF00F060024BBE716F8013B4A
S2140028D4FF2BBBD0F4214846FFF734FBB6E700BF16
S2140028E462C20200FF1FE00F00E00700FFF78ABE87
S2140028F4014803F093BC00BF0080014AA52803D119
S2140029040021024803F07BBC704700BF0080014AE8
S214002914024B586800F00100704700BF0080014A6F
S214002924024A536A002BFCD1704700BF0080014A5C
S21400293400207047002070477047000007B572B645
S21400294402F06BFF894B8A495B6940228B60002347
S2140029540B764B768B76F023CB760B774B778B7791
S214002964CA77802281F8202081F82130E023602075
S21400297481F822307F4B81F8232083F8002383F8E4
S214002984012383F8022383F8032383F8042383F8BC
S214002994052383F8062383F8072383F8082383F89C
S2140029A4092383F80A2383F80B2383F80C2383F87C
S2140029B40D2383F80E2383F80F2383F8102383F85C
S2140029C4112383F8122383F8132383F8142383F83C
S2140029D4152383F8162383F8172383F8182383F81C
S2140029E4192383F81A2383F81B2383F81C2383F8FC
S2140029F41D2383F81E2383F81F2383F8202383F8DC
S214002A042103202083F8222383F8232383F8242316
S214002A1483F8252383F8262383F8272383F828239B
S214002A2483F8292383F82A2383F82B0383F82C03BB
S214002A3483F82D2383F82E2383F82F2383F830235B
S214002A4483F8312383F8322383F8332383F834233B
S214002A5483F8352383F8362383F8372383F838231B
S214002A6483F8392383F83A2383F83B2383F83C23FB
S214002A74CB6823F4E0631B041B0C43F0BF6343F4EE
S214002A840133CB604B6943F010034B614FF4E023F2
S214002A944B6203F071FFFFF75DFBEFF308834FF023
S214002AA4CD31354A043B93425DD2344A002192B27A
S214002AB43348FEF788FD62B6684603F0B1F9314B39
S214002AC49B6DDB0318D4304A136823F4FF0323F406
S214002AD4FE4343F4BC1343F4A063136052F8043C6F
S214002AE423F4704343F4404342F8043C52F8043C55
S214002AF443F4E06342F8043C9DF80130012B0FD107
S214002B049DF8003063B94FF000531B681F4B1B68D9
S214002B141F4B1B681F4B1B681F4B1B681F4B1B68F8
S214002B241F4AD2F8803043F00303C2F880300222F2
S214002B344FF040231A6703F09DFE01F0E5FA0023E8
S214002B4400938DF80430012368468DF8033002F0B4
S214002B5400FF00F027F911F01FFF124809F0B4FF38
S214002B6403B05DF804FB1960043B9CE754000000C6
S214002B7400ED00E000E100E0601100208C10000091
S214002B84A000002000C0004034C0004000400020E8
S214002B940080002000C0002000000120004001202A
S214002BA400800040B4D5020040F2016011F0A2BEDD
S214002BB4FEF754BF08B500210B20FEF74DFFBDE815
S214002BC40840FEF74CBF032000F078BA08B5FFF7BC
S214002BD411FB044B0B289ABF00B203EB8000184687
S214002BE408BD00BF2AC4020008B5FFF709FB044B62
S214002BF4C0F30F2253F82230C0B203EB800008BDA6
S214002C04F4C3020010B5FFF7F5FA0446FFF7F8FA26
S214002C14C0B228B9012C24D164F07F04E4B216E0D3
S214002C24072CF9D801A353F824F000BF532C000056
S214002C341D2C0000512C0000572C0000572C0000BF
S214002C445B2C00005F2C0000632C00000924204647
S214002C5410BD0224FBE70324F9E70B24F7E7062458
S214002C64F5E70446F3E700BF07282DE9F84F0446C6
S214002C740F462DD0082808BF022421460120FEF75F
S214002C84CAF8FFF745FE651ED5F1000848EB0508AF
S214002C9400B3012C1ED1A520FFF730FE2646EFF325
S214002CA41089012383F31088EFF3118A4FF0000B89
S214002CB48BF31188354D404605F0A6FE631EC5F815
S214002CC400B0042B59D8DFE803F00E4D4D515500E3
S214002CD40324D2E7FFF71CFE18B1FFF721FE0026F7
S214002CE4DDE70646DBE72A4A136923F0040313618B
S214002CF430BF284AD2F82434D2F8202413409BB29A
S214002D04254A2B60D2F80011480102D51168490102
S214002D1406D4D2F80011880105D51268910102D5AF
S214002D2443F480332B601C4BD3F80021520506D5A0
S214002D341B685B0542BF2B6843F400332B601EB14F
S214002D440121164803F05BFA404605F07DFECFB13C
S214002D548AF3118889F310882146BDE8F84F0020CD
S214002D64FEF759B8012002F0C7FDC2E7012002F0C1
S214002D74D7FDBEE702F0D6FDBBE788210848FFF77B
S214002D84E1F8B6E787F31088E6E700BF4C2B00208F
S214002D9400ED00E000C0034000E100E00080014ACE
S214002DA45AC4020042F22041044AD2F820341B0CD2
S214002DB41B045350024A1360704700BF00C0034010
S214002DC4482B00200021FFF74FBFFFF7FBBF000092
S214002DD42DE9F04F89B009F06BFE0746002840F055
S214002DE4DD806F4E6F4D3168286810F06DFF044625
S214002DF4002827D033683C46D3E900019A69126854
S214002E049047336804A89B699B68984733680220F8
S214002E149B69DB689847326805985368E7B2B3FB4A
S214002E24F0F3BB42916904F1010442D8CB68002058
S214002E34984733689B695B6898473168286810F040
S214002E4443FF04460026DFF88891002C53D1564BE6
S214002E544FEA8608F35C002B31D1A246534BF35C51
S214002E640193534B03EB080B019B5FFA8AF7BB42B3
S214002E74286853D84F4BF35C002B3CD04C4B019F37
S214002E849844FBB27E2B286835D8D8F8003003AABD
S214002E9407EB030A514602AB11F050F948452AD015
S214002EA45146286811F090F9013704460028E8D006
S214002EB421E012680B6907FB00209847ABE73C4B00
S214002EC403AA53F82670286802AB394611F036F97F
S214002ED4484507D078B9039B012B0CD0394628689F
S214002EE411F072F9344B394653F8083028681A68DA
S214002EF411F04EF804460136232EA6D1B4FA84F314
S214002F042E4A5B0913702E4B9C4241D02DD8002CC0
S214002F1432D0013B9C423FD0C5242DE0DBF8003084
S214002F2403AA1F44394602AB11F008F948450AD0F3
S214002F3410B10AF1010A97E7039B8BB9214B029A59
S214002F44F35C9A42F5D01F4B1B4A9B5D52F808204F
S214002F543946286810F08EFF0028EAD0044689E730
S214002F643946286811F030F9EDE7174B9C4211D02A
S214002F7404339C42D0D1C1242B681B7C23B14FF46C
S214002F8489711248FEF7DEFF204609B0BDE8F08FCF
S214002F94C324F1E7C424EFE7C224EDE7C624F3E72D
S214002FA4141E0020101E002070B40200C0B30200DD
S214002FB4B8B4020093B40200E4B30200502B00201D
S214002FC402E000F044B5020004E000F0D6C40200BB
S214002FD40BE000F0222970B506460C4615461AD8B2
S214002FE4144A127822B3144A1068144A52F821106C
S214002FF4134A125D3AB1324611F018F8C0B1BDE872
S2140030047040FEF75CBA7F2D08BF0025324629447F
S21400301410F07AFFF2E7FF2903D9BDE87040FFF706
S214003024C9BB40F24511BDE870400648FEF78ABFAA
S21400303470BD00BF502B0020101E0020B8B4020044
S21400304470B40200D6C402002228F8B504460D4621
S214003054164619D81449097829B31449144F086830
S214003064144951F824103C5D3CB1126810F090FFEE
S214003074C8B1BDE8F840FEF722BA7F2D08BF002588
S214003084294410F0F7FEF3E7FF2805D91A4631461F
S214003094BDE8F840FFF7B2BB4FF4BC71BDE8F8409A
S2140030A40548FEF74FBFF8BD502B0020101E002029
S2140030B470B40200B8B40200D6C4020008B5084BC7
S2140030C41B7863B1074B002253F82010064B186890
S2140030D410F0ECFF18B1BDE80840FEF7F0B908BDE3
S2140030E4502B0020B8B40200101E002070B51646FF
S2140030F485180AB9304470BD01F00F030A2B34BF9B
S21400310430243724013A2344090905F8013DD2B294
S214003114EFE70000F0B5F9B100281CDA2D23B0F172
S214003124004F137000D04042012115E0801B8642F8
S214003134ECB205F10105F9D904B927B101274D1CF4
S21400314430345454E9B20133092B09D13030505489
S2140031540131C8B2F0BD002100231F46DFF808C0C5
S2140031645CF823600025E2E74CC502002DE9F04F29
S2140031744FF0000B95B002AC81468A4617461D46B2
S2140031845E46A0463B7863B902ABE41AE4B2224634
S21400319419465046C847002840F093803444E0B2AD
S2140031A490E0252B13D0BBF1000F14D1237001340B
S2140031B412AB9C426DD3A4EB0804E4B2224641460B
S2140031C45046C84700287CD12644F6B260E0BBF1DE
S2140031D4000F00D101373B78632B00F092801BD898
S2140031E4392B09D8302B80F09E80002BCCD0252B91
S2140031F451D04FF0000BDBE7582B00F08B80622B8E
S214003204F7D14FF0000B2B6801936B680093009B7B
S2140032149B4543D10835ECE7702B1ED017D8642B9A
S21400322401D06C2BE5D16C2B05F1040B28686CD10E
S2140032347B78752B14BF0121002101D0642B00D1AB
S21400324401372246FFF766FF04445D46D1E7752B37
S214003254E9D0782B5ED0732BCBD1A4EB0804E4B270
S214003264224602A9504605F1040B2D68C84740BB08
S2140032742644F6B2C4B22B5D0130002BFAD12246A6
S21400328429465046C847E0B95D4683462644F6B20A
S2140032944446013776E723700134AAE7019B2046AB
S2140032A413F80B100222FFF721FF12AB98420446D4
S2140032B40ED3A0EB0804E4B2224641465046C84763
S2140032C418B1002015B0BDE8F08F26444446F6B287
S2140032D4009B013B5B4582BF20232370013412AB65
S2140032E49C420BD3A4EB0804E4B222464146504663
S2140032F4C8470028E5D126444446F6B20BF1010B34
S21400330485E72B6804352370C6E7752B0CBF0021B0
S214003314012196E7204602222978FFF7E7FE05F109
S214003324040B044691E77A7802F0DF02582A19D192
S214003334322B07F1010B09D10422204629882F1DC0
S214003344FFF7D4FE3D4604465F4652E7342B09D1C8
S2140033542F1D2D680422290C2046FFF7C7FE0422E1
S214003364A9B2EDE74FF0010B22E70EB403B503AAAA
S21400337452F8041B019205F0FDFBC0B202B05DF8E2
S21400338404EB03B0704700000149FFF7EEBF00BF2F
S21400339408B002000EB433B505AA52F8041B05465D
S2140033A4019205F0E7FB04462846FFF7EDFFE0B27E
S2140033B402B0BDE8304003B0704708B505F0DAFB4C
S2140033C4C0B208BD2DE9F04F9B46584B85B01B781C
S2140033D4064689461546109F9DF844A0DDF85080A1
S2140033E4002B00F09280072A00F291800E9B002B9F
S2140033F400F08D800F9B002B00F08980129BB3F5A4
S214003404006F00F38480012801D1002F7FD0484B41
S21400341403EB05131B7B002B7BD0464C10220021AC
S214003424684627F0C1FC04EB45141022B9F1000FDE
S2140034345CD14946204627F0B7FCA37843F0100336
S214003444A370E37843F03003E370BAF1000F03D1BE
S214003454DBB243F00303E37036496A01129B885AD1
S214003464013B63F30E100E9B01EB020C8852CCF862
S21400347408300F9B9DF84C10CCF804309CF80330B1
S214003484012E61F38303CDF800B08CF8033042D1EB
S21400349413230CF1100ECCF80C309CE80F008EE8C9
S2140034A40F006FF00301DCF81C20B9F1010F61F383
S2140034B49F02CCF81C20CCF8147004D10F9BCCF8D7
S2140034C40470CCF81830002719492A018B1841F8E3
S2140034D40280159A28465A609F605E7322466946A3
S2140034E402F018FB384605B0BDE8F08F00212046F0
S2140034F427F05AFC1023A3700323E370BAF1000FDD
S214003504AAD1DBB243F03003A5E70B48EBE70B4840
S214003514E9E70B48E7E7B8F1000FD4D19CF802308E
S21400352468F304138CF80230CDE700BFD42C0020D7
S214003534542B0020D42B0020028000F0018000F0E1
S214003544078000F038B5104B05461B78BBB1C0B1F8
S21400355402F06BF900230D4901EB0312147B3CB90E
S2140035642B6001231460137302F065F9204638BDFE
S2140035740133082BF0D102F05EF90548F7E7054859
S214003584F5E70548F3E700BFD42C0020542B0020B1
S214003594048000F0028000F0018000F038B502F0EC
S2140035A444F9002305460A4AD1180C7B5CB910334B
S2140035B4802BF9D102F060FA064B28461C7002F004
S2140035C43AF9204638BD284602F035F90248F9E7AC
S2140035D4542B0020D42C0020058000F00D4B10B591
S2140035E41B78044693B1072812D802F01EF90A4B3A
S2140035F403EB04131A7B2AB100241C7302F01BF994
S214003604204610BD02F017F90448FAE70448F8E724
S2140036140448F6E7D42C0020542B0020068000F043
S214003624028000F0018000F0164B13B518680023E2
S21400363401908DF8043002F0F8F8134B1C7824B18E
S21400364402F0F9F8114802B010BD01221A7002F017
S214003654F2F80F4B1C731C7783F82C4083F83C401D
S21400366483F84C4083F85C4083F86C4083F87C40D5
S21400367404230DEB03008DF8073002F021FA2046F0
S214003684E1E700BF70C50200D42C0020038000F0E0
S214003694542B002010B588B00E9C009207940D9C05
S2140036A4024606949DF8304005940B9C04949DF8BD
S2140036B4284003940024CDE9013420460B462146D5
S2140036C4FFF780FE08B010BD10B588B00E9C0092BF
S2140036D407940D9C024606949DF8304005940B9C76
S2140036E404949DF8284003940024CDE90134204630
S2140036F40B460121FFF766FE08B010BD08B50A4B5D
S2140037041B785BB107280BD8084B03EB00131B7B15
S21400371443B1002102F0C4F9002008BD0448FCE7C8
S2140037240448FAE70448F8E7D42C0020542B002079
S214003734028000F0018000F0078000F008B50A4B14
S2140037441B785BB107280BD8084B03EB00131B7BD5
S21400375443B1012102F0A4F9002008BD0448FCE7A7
S2140037640448FAE70448F8E7D42C0020542B002039
S214003774028000F0018000F0078000F008B50A4BD4
S2140037841B7853B107280AD8084B03EB00131B7B9E
S2140037943BB102F00FFA002008BD0548FCE70548D7
S2140037A4FAE70548F8E700BFD42C0020542B002085
S2140037B4028000F0018000F0078000F00D4B1B78BB
S2140037C493B1072812D889B10B4B03EB00131B7B6C
S2140037D473B10A4BDA6A012303FA00F010401ABFE9
S2140037E400200B70087070470548704705487047FE
S2140037F405487047D42C0020542B002000000440B9
S214003804028000F0018000F0078000F00B4B10B53A
S2140038141B780C4663B107280CD859B1084B03EB48
S21400382400131B7B43B102F0D7F92060002010BDC3
S2140038340448FCE70448FAE70448F8E7D42C0020D8
S214003844542B0020028000F0018000F0078000F076
S2140038542DE9F843174B1F6D5B6D1F4000D5FEE73F
S21400386401260025144CDFF85480DFF854903742C4
S21400387417D02368C8F800609BB1A168626801315C
S214003884A16028469847637B012B0AD148B909EB07
S2140038944513197B1A7F60F3410160F341021973E3
S2140038A41A770135082D4FEA460604F11004DED1D6
S2140038B4BDE8F88300000440542B00205020044048
S2140038C4D42B002070B504460125084E04B970BDFB
S2140038D494FAA4F0B0FA80F005FA00F324EA03049C
S2140038E456F82030002BF1D09847EFE7D82C00206C
S2140038F44FF00072044BC3F880211A604FF08062C8
S214003904C3F880211A60704700E100E038B5044629
S2140039140D4601F08AFF034B43F82450BDE83840B7
S21400392401F089BFD82C0020084BD3F82404D3F820
S2140039342024104042F2204220F42A5020F02A008C
S2140039444004400C9850FFF7BDBF00BF00C00340C2
S214003954084BD3F82404D3F82024104042F2204223
S21400396420F4AA4020F055000004000C9850FFF7FD
S214003974A9BF00BF00C00340104A30B513684161B8
S2140039841546ABB91060836011E0091B9C68416161
S2140039941A467CB123465C698C42F6D9002CF4D0D6
S2140039A452B19060836013B15A69511A596130BD9F
S2140039B40022F0E72346F4E72860F3E72C2D0020E6
S2140039C410B500F0B1FA094B094A196831B1136809
S2140039D4C41A4B69A34203D31B1B4B61106003E05C
S2140039E4C01A002310604B6110BD00BF2C2D0020B0
S2140039F41C2D0020074B10B51B6802205C69064B83
S214003A041B681C4400F0C4FA2046BDE8104000F0D1
S214003A1493BA00BF2C2D00201C2D002070B59DF8F5
S214003A241450164605710025049A8560BDF8185092
S214003A340446C5800260C0E903360D4629B96161B3
S214003A440BB11146984796B1354601F0EEFE064690
S214003A54FFF7B6FF29462046FFF78EFF054B1B6887
S214003A64A34201D1FFF7C6FF304601F0E4FE002072
S214003A7470BD00BF2C2D002000210C4A13687BB1BA
S214003A8483420AD1836879B18B6083681BB15A6913
S214003A9441690A445A610020704719469B68EEE75C
S214003AA40028EFD0022070471360EEE72C2D00208C
S214003AB470B501F0BAFE114D06462C78CCB9104B01
S214003AC41C60104B1C60104B1C8000F0F3F90120A6
S214003AD400F05EFA00F0AAFA0C4B0246186040F2B8
S214003AE4E73123460A4826F083FF0A4B1860012371
S214003AF42B70304601F09FFE002070BD182D00206C
S214003B042C2D00201C2D0020242D0020282D0020E4
S214003B1418FCFFFF202D00202DE9F0410546F8B1E2
S214003B2401F083FE0F4F0646FFF74AFF2846D7F8F4
S214003B340080FFF7A1FF044628B1304601F07BFE63
S214003B442046BDE8F081A8453B6803D123B1FFF7C2
S214003B5451FFF2E7002BF0D1022000F025FAECE743
S214003B642224EDE72C2D0020F0B50D4685B0164630
S214003B741F46044680B1FFF7CFFFBDF82C30002265
S214003B8402939DF828302946CDE900732046334633
S214003B94FFF744FF05B0F0BD2220FBE738B50C461E
S214003BA4054698B191B100230B7001F03EFE012149
S214003BB4074B1B680BB122781AB101F03CFE0020BB
S214003BC438BD9D420CBF21709B68F3E72220F7E7BF
S214003BD42C2D0020F0B51F46002387B00D46164650
S214003BE48DF817300446A0B10DF11701FFF7D6FF84
S214003BF49DF817207AB9BDF83430294602939DF80B
S214003C0430302046CDE900733346FFF707FF07B090
S214003C14F0BD2220FBE70320F9E70000F8B50C46C8
S214003C240646C8B1C1B101F000FE0546FFF7C8FE5E
S214003C3473692360134B1B68B3420FD023B928461D
S214003C4401F0F9FD03201CE0596922689B680A44C8
S214003C542260F1E700230FE0222012E0276800F03C
S214003C6463F9094E3368C01A8742F3D900F05CF949
S214003C743368C01A23681B1A2846236001F0DBFD4C
S214003C840020F8BD2C2D00201C2D002070B501F05E
S214003C94CCFD064600F048F9094B05461C88012071
S214003CA4A4B200F099F918B100F03EF905460134C3
S214003CB4304601F0C0FD0022214642EA050070BDF0
S214003CC4242D00200A4B10B51B680C4683420CD3E7
S214003CD4084B4FF47A7219680023A0FB010126F002
S214003CE487FE01302060002010BD2120FCE700BFC5
S214003CF4202D0020282D0020104B10B51A684FF4F4
S214003D047A73A0FB0301A2B1531E134211D1B2FA77
S214003D1482F2C2F11F02C2F12004A2F1200301FACA
S214003D2404F420FA02F2224321FA03F342EA0300DF
S214003D3410BD002326F05CFEFAE700BF282D002005
S214003D4400000000F8B516461BA3D3E900238B42F7
S214003D5408BF82422AD3174B1A684FF47A73A0FB23
S214003D64034503FB0155C2B1531E13EA020014D1E6
S214003D74B2FA82F2C2F11F02C2F12007A2F12001B8
S214003D8424FA02F305FA07F73B4325FA01F10B433D
S214003D9425FA02F2C6E90032F8BD00232046294679
S214003DA426F026FEC6E900010020F5E72120F3E709
S214003DB4AFF30080282D0020EFA7C64B37894100BB
S214003DC4C2072DE9F84F04460BD5374A138801334A
S214003DD49BB21380FFF7F4FD344B1B680BB1FFF75F
S214003DE409FEA3075DD500F09FF8314E07463568F7
S214003DF44FF0000A451B01F018FD8046DFF8AC9032
S214003E04D9F80040002C48D06369AB4209D95D1B41
S214003E1465613760FFF7EEFD4046BDE8F84F01F0F8
S214003E240ABD23462A4637605969914209D818794B
S214003E3494F804C0521A844588BF1C469B68002B1D
S214003E44F2D1404601F0F7FCD4F81480C4F814A06C
S214003E5401F0EBFC83462046FFF70EFE584601F0C1
S214003E64EAFC23694BB101F0E0FC83462169204655
S214003E74FFF782FD584601F0DEFCE36813B12168C3
S214003E842046984700F050F84744ED1B0446054486
S214003E9401F0CBFC27468046B2E7022000F084F807
S214003EA4BAE7BDE8F88F00BF242D00202C2D002093
S214003EB41C2D00201FB50024184B18689A88029001
S214003EC453F8060FADF80C201B79009002A88DF865
S214003ED404308DF808408DF80C4001F007FF694661
S214003EE401208DF8004001F0C5FE4FF090431F21DD
S214003EF49A6922F01F029A61094A11609A6A12F0BE
S214003F040802FBD11A62012001F0CEFE4FF4806253
S214003F14044BC3F880211A6004B010BD74C50200B7
S214003F241420004800E100E04FF090439A6A12071C
S214003F34FCD4186A704700004FF09042936A190741
S214003F44FCD4136A116C5269120704D4CA1A022AE2
S214003F5401D899420ED1C21A012A98BF981CB0F112
S214003F64FF3F28BF01304FF0904318649A6942F02F
S214003F7408029A61054A13783BB14FF09041CB6B27
S214003F8443F00203CB63002313707047D01D002058
S214003F9482074FF0904200F00103916948BF43F056
S214003FA408030B4393617047830700F001020AD5A8
S214003FB40121084B42F0080219704FF09041CB6B78
S214003FC423F00303CB634FF090418B6923EA02038B
S214003FD48B617047D01D00204FF0904301285B6929
S214003FE404D0022805D1C3F3C000704703F00100D3
S214003FF4704700207047000010B501F016FC4FF023
S214004004904304465B691A07074A03F0010003F06D
S2140040140D0348BF40F002001360FFF7D1FE2046B0
S214004024BDE8104001F007BC142000481B2001F036
S2140040340DB90000002211462D48F0B503682D4D39
S21400404454592CB11E68AC18002E3DD123460121CC
S2140040540832282AF4D101B1036000221446264906
S214004064264E0B6895592DB11F68B518002F32D10E
S2140040742B4601240832282AF4D104B10B600068C8
S2140040840368002B2FD04FF04022936F007923F063
S214004094FF7323F4803343EA00439367184B4FF0CF
S2140040A4004209681A600B68FBB14FF04022936F18
S2140040B4097923F4FF7323F001030B439367104B32
S2140040C44FF080421A60F0BD1E792779B74284BF4C
S2140040D423460121BCE71F7995F804C0BC453CBFC4
S2140040E42B460124C6E7074BD9E7064BE8E700BF93
S2140040F4342D0020442D0020382D00206C2D002067
S214004104685000406860004010B5012228240F4B18
S21400411400211A700E48224626F046FE224600214A
S2140041240C4826F041FE0C4B0C4A13600C4A1360F4
S2140041344FF040430B4A1360536020220A4BC3F8E7
S21400414480211A60FFF776FF002010BD302D002076
S214004154442D00206C2D00203C2D0020342D002002
S214004164382D00206460004000E100E04FF040225B
S214004174D2F88800D2F88830C0F38800C3F38803E6
S2140041849842F5D16FF48873184440B27047000023
S2140041944FF04022936E526E10B5134013F08042D7
S2140041A411D0114B1B681C682CB100211960596092
S2140041B4FFF7DCFFA0474FF080420C4B1A60BDE8C7
S2140041C41040FFF737BF002BF9DA094B1B681C6851
S2140041D42CB11A605A60FFF7C9FF0121A047034BB0
S2140041E44FF00042EAE700BF382D0020646000402C
S2140041F4342D0020FFF7CCBF012203685A619A6968
S214004204D207FCD541F2AC52042103795B0103F1D9
S214004214804303F5703399507047000038B141B1BC
S214004224013AB2F5006F044838BF002070470348CF
S21400423470470148704700BF037000F0027000F03A
S21400424438B504460D4601F0F0FAA28892B222B9B7
S2140042542A6001F0F0FA064838BD1422638802FB8F
S214004264034308332B6001F0E6FA0020F4E700BFAE
S2140042740B7000F038B504460D4601F0D6FAA38854
S2140042849BB223B92B6001F0D6FA0C4838BD142231
S2140042946388E18802FB034308332B6063885A1C57
S2140042A492FBF1F301FB13239BB26380A388013BCB
S2140042B49BB2A38001F0BFFA0020E7E70B7000F082
S2140042C490F83130022B0BD13022437F90F8210036
S2140042D45A43044B9B5823FA00F000F00100704741
S2140042E40020704714C00340002313B51C4A52F83C
S2140042F4234094F8211081420ED00133042BF6D1CA
S21400430402B010BD0028FBD19DF80730002BF7D073
S214004314A068FFF7F3F9F3E794F83130022BEFD1F6
S2140043242046FFF7CDFF637E2076022BE8D194F873
S2140043342E3003F0FF02002BE2D102A901F8012D72
S214004344A068FFF73BFA237E1BB194F82F30002BAE
S214004354D8D00023A06884F82F30FFF7EFF9CFE712
S214004364942D0020012230B590F8324087B080F8B2
S2140043742C207CB9094D0368CDE9024504904C68AD
S2140043842433CDE900240A684169C068FFF79CF924
S21400439407B030BD002380F82C30F9E7554C0000F8
S2140043A4012330B590F8324087B080F82D307CB9C0
S2140043B4094D0268CDE9024504904C683C32CDE9CB
S2140043C400340B6801698068FFF764F907B030BDF4
S2140043D4002380F82D30F9E7E1430000F7B5906A32
S2140043E401A91446FFF72CFF144B984220D0002551
S2140043F4019B1D619D6001F018FA019A0746D66874
S21400440426B1D2E9002329462046B04701A9A06A6E
S214004414FFF730FFA06A83889BB263B101A9FFF758
S2140044240FFF01992046FFF7BBFF384601F003FA59
S214004434012003B0F0BD84F82D30F6E70B7000F0D1
S214004444F8B5044617460D4601F0EFF9A388E2884E
S21400445406469A4205D800233B6001F0ECF916485C
S214004464F8BD1422238805F1100C02FB034308331D
S2140044742A4603CA624518605960154603F10803C4
S214004484F6D11068142218602388E18802FB0343DF
S21400449408333B60238830465A1C92FBF1F301FB39
S2140044A413239BB22380A38801339BB2A38001F01D
S2140044B4C2F90020D4E700BF0A7000F02DE9F341EA
S2140044C40D460446002800F0868001F0AEF9012D62
S2140044D4064637D1A36A9B889BB2002B39D0A068C6
S2140044E4FFF74CF90023A06A84F82D3083889BB22A
S2140044F4002B34D1226893699B04FCD5023D012D20
S2140045041BD8E068FFF73AF90023606A84F82C3079
S21400451483889BB2002B41D194F83130032B0CD006
S21400452442F2AC52042123795B0103F1804303F584
S21400453470339950022223685A61304601F07BF9A1
S214004544002009E0022D48D1636A9B889BB2002BA9
S214004554D4D101F070F9264802B0BDE8F08101A973
S214004564FFF76EFE0199A0680831FFF74FF9214F57
S214004574019B1F61A06A83889BB2002BBAD001A955
S214004584FFF778FE019BD3F80C80B8F1000FF1D04A
S2140045949B68002239462046C047EBE76946FFF78A
S2140045A44FFE0099E0680831FFF730F9114F009B81
S2140045B41F61606A83889BB2002BADD06946FFF703
S2140045C459FE009BDD68002DF3D09B680022394617
S2140045D42046A847EDE70848BEE7032D8ED1A36A18
S2140045E49B889BB2002B7FF47AAF636A73E700BFA5
S2140045F4087000F0097000F0027000F00368986913
S2140046047047436A9888C0B270472DE9F3419846CC
S21400461400230546406A0E4684881746A4B2CDE9B0
S21400462400333CB16946FFF70BFE01A90446E8686F
S214004634FFF7ECF8009969B164B94868019BC01AA1
S2140046443860C8F800300B6833602B68986902B08D
S214004654BDE8F0810021C8F8001039603160F4E745
S214004664836A9888C0B270472DE9F34198460023C0
S2140046740546806A0E4684881746A4B2CDE9003300
S2140046843CB16946FFF7DCFD01A90446A868FFF7BC
S214004694BDF8009969B164B94868019BC01A3860CE
S2140046A4C8F800300B6833602B68986902B0BDE820
S2140046B4F0810021C8F8001039603160F4E7007E0C
S2140046C470472DE9F04104460F469046FFF7A6FDD5
S2140046D40546002839D1152001F0CCF80646A26A12
S2140046E493889BB213B194F82E308BB323689E69DB
S2140046F416F002060ED104225A619A699207FCD576
S21400470441F2AC52102123795B0103F1804303F597
S21400471470339950012384F8303094F8323033B92A
S214004724B8444745206818D183699B06FCD566B90A
S21400473442F2AC52102123795B0103F1804303F566
S21400474470339950082223685A612846BDE8F081E0
S214004754002EC5D0FFF77CF8C1E717F8011B01F05F
S21400476449FDDEE710B5044680B190F82E302BB92B
S214004774FFF7A6FD10B9A068FEF7C0FF002094F866
S2140047842E300133DBB284F82E3010BD0048FCE72F
S214004794027000F010B50446A0B190F82E309BB11C
S2140047A490F82E30012B05D1FFF78AFD10B9A068CA
S2140047B4FEF7C4FF002094F82E30013BDBB284F8E9
S2140047C42E3010BD0148FCE70148FAE7027000F0FD
S2140047D4057000F037B590F831500446022D1ED10E
S2140047E4012190F82220457E837F01FA02F23020D0
S2140047F4154925B900FB031342F2100105E0012D0B
S21400480407D100FB031341F210015A50002003B0F5
S21400481430BD247E00FB0313002CF4D1ECE7012DFD
S214004824F4D1037E73B911238DF80730FFF79AFF8E
S2140048342A460DF107012046FFF743FF2046FFF7FF
S214004844A9FFE3E71323EFE700C00340F0B50446EF
S2140048548BB09E4F03AE0D460FCF0FC697E80700EA
S21400486486E807001CB99A4C20460BB0F0BD0DB97B
S214004874984CF9E738220021204626F095FA964906
S214004884964A0B78002B40F0D3800120C2E900330F
S214004894C2E90233087042F823402B7D286884F866
S2140048A431300023206084F832302B7B23718C4B0C
S2140048B4984240F0CA80202384F82330894B236131
S2140048C44FF4802300266361D5E9072362621680CD
S2140048D45680968084F82C60A3621E805E809E803C
S2140048E46B6803A90593EB8984F82D60ADF81C303A
S2140048F42B8A84F82F60ADF81A30AB7C8DF80C60E8
S2140049048DF81830EB7C8DF81E3005238DF81930A1
S21400491401F0F2FB14212A7B734B287A03EB42172F
S214004924C7F8AC15A97A2E3240EA014C03EB4213C1
S214004934C3F804C06A7AEB7A42EA034CC7F8BCC5EB
S214004944E17784F820306B7DE07622776377AB7D61
S214004954042284F82130EB7DA3772B7E84F8223062
S214004964012301F047F80123022294F82010207F47
S21400497401F040F894F83130022B7DD13346012201
S21400498494F82110607F01F035F83346042294F839
S2140049942210A07F01F02EF8012394F82120607FD6
S2140049A41146CDE9003300F0DFFF00F03EFF2E7D18
S2140049B40746032E71D141F2AC5202212B7B042010
S2140049C45B0103F1804303F57033995041F25C02B6
S2140049D429688850297EEA7D42EA014241F2B851AC
S2140049E45A50A97D6A7D42EA014241F2B4515A50B6
S2140049F44FF0FF3242F248032868C2502B7D032B47
S214004A040CBF0521042101F031FB4FF440622B68F2
S214004A145A61FEF709FE002104F10800FEF792FD34
S214004A24014600284AD0314C384600F004FF1BE704
S214004A34002352F8231000293FF42DAF8C423FF494
S214004A442AAF0133042BF4D10DE7294B984207D142
S214004A54212384F82330274B23614FF4A02331E726
S214004A64254B98427FF404AF222384F82330234B4B
S214004A7423614FF4C02325E7032B96D1334694F8DD
S214004A842110607F012200F0B5FF3346042294F81B
S214004A942210A07F00F0AEFF87E7022EA8D194F87C
S214004AA421001749FEF732FFFEF722FF0023667641
S214004AB4A37623762046FFF78DFE99E704F10C00D3
S214004AC4FEF740FD04460028AED0ACE780C50200E1
S214004AD4027000F0037000F0A42D0020942D002036
S214004AE4008005400200040000C003400E7000F081
S214004AF400C0054002000500000006400200060053
S214004B04ED42000090F83130032B05D0022941769F
S214004B1418BF0176FFF75EBE00487047057000F0C8
S214004B2413B50446002862D00321FFF7C7FC002112
S214004B342046FFF7E7FF0023E17F1A46E07E00F0F9
S214004B4459FF002394F820101A46207F00F052FFE5
S214004B5494F83130022B39D1002394F821101A46E8
S214004B64607F00F047FF002394F822101A46A07FC7
S214004B7400F040FF0021012394F82120607FCDE956
S214004B840031114600F0F0FE94F8323013B90A22D0
S214004B9423685A6194F83130032B04D0002194F82A
S214004BA42100FEF7B3FEA068FEF718FDE068FEF7E6
S214004BB415FDFEF7F3FC0020636A18805880988081
S214004BC4A36A18805880988002B010BD032BDBD1EE
S214004BD4002394F821101A46607F00F00BFF002390
S214004BE494F822101A46A07F00F004FFCCE7014890
S214004BF4EAE700BF027000F0F0B587B00446164638
S214004C04FFF70CFB0546E8B90493104BCDE90116F3
S214004C146A4601A9606A03960593FFF711FC0546E8
S214004C2480B994F82C306BB92046FFF7E5FA009962
S214004C34FFF798FB94F83130032B03D025762046F3
S214004C44FFF7C8FD284607B0F0BD00BF017000F0AE
S214004C5473B5506A01A91446FFF7F2FA2F4B98422F
S214004C6430D094F83200019B002839D12268916C28
S214004C7411F4007129D02A499860196142F2480358
S214004C844FF40071D15000F0D0FD01990646CD686E
S214004C9435B14A688B682046D31A0A680969A8475A
S214004CA401A9606AFFF7E6FA606A8588ADB2DDB1ED
S214004CB401A9FFF7C5FA01992046FFF753FB3046D2
S214004CC400F0B9FD012002B070BD906CC00507D598
S214004CD41448996018614FF4807142F24803D1E792
S214004CE400221A619A60CEE7012320462376FFF756
S214004CF471FD94F8313084F82C50032BDFD042F247
S214004D04AC52042123795B0103F1804303F570332D
S214004D149950022223685A61D1E700BF0B7000F055
S214004D240D7000F00C7000F090F8312010B5012AD8
S214004D34034610D102290ED0827E8A4201D1002079
S214004D4410BD997611B9FFF725FDF8E70129F6D1CC
S214004D54FFF708FDF3E70148F2E700BF057000F02F
S214004D64F0B587B004461646FFF758FA054600BB6A
S214004D740493114BCDE901166A4601A9A06A03966D
S214004D840593FFF75DFB054698B994F82D3083B973
S214004D9400F04BFDA36A06469B889BB233B100998C
S214004DA42046FFF7FDFA012384F83030304600F041
S214004DB442FD284607B0F0BD017000F070B588B01B
S214004DC40E22002104A825F0EFFF01230D22002166
S214004DD468468DF8103025F0E7FF0223244C6A4617
S214004DE4002120468DF8063001F0A4F8236B4FF618
S214004DF4FF73204EE36100233546ADF8123004A954
S214004E04204601F04AF8062000F020FABDF81230D9
S214004E140133B0FBF3F09BB2B3F5806F3060ADF8AE
S214004E24123002D2144B9842E9D80E2000F00EFA43
S214004E341249134CB1FBF0F128680025E1FB00454C
S214004E44104A00232046294625F0D2FD0E4B084A78
S214004E54186000200D4B1870936923F010039361BB
S214004E6440220B4BC3F880211A6008B070BD00BF07
S214004E7400800440A82D002080841E0000B0710B22
S214004E8420A1070040420F00AC2D0020B02D0020CA
S214004E9400E100E0F7B500251D4B1E4C19681E4ABC
S214004EA4E0FB014500232046294625F0A1FD4FF6E8
S214004EB4E85400254FF6E75E4FF0FF37DFF860C092
S214004EC4164E8D4208BF844211D380B260B1144A94
S214004ED4516A89B2536A9BB2ADF80630BDF8063003
S214004EE45B1A9BB29842F5D8002003B0F0BDDCF8FC
S214004EF4242092B2DCF824309BB2ADF80430BDF81E
S214004F0404309B1A9BB27345F4D980197941D8E7CB
S214004F14A82D002020A1070040420F001802FFFF22
S214004F2400800440054B5A69D20606D542F21402A4
S214004F34102199500122024B1A70704700800440D9
S214004F44B02D002038B5124B0546D3F820310C4658
S214004F5403F00703013B032B17D8DFE803F0020A2C
S214004F640E1201F0C1F9042305B1286004B12370C0
S214004F7438BD01F0A3F90323F6E701F0C1F90523D0
S214004F84F2E701F0B9F90223EEE700231846EBE74F
S214004F940080004037B50C460021114B0191D3F830
S214004FA48031054603F00303022B0ED0032B11D0E9
S214004FB4012B03D101A8FFF7C5FF0D210DB1019BFD
S214004FC42B6004B1217003B030BD01F099F90521BE
S214004FD40190F3E701F090F902210190EEE700BF9B
S214004FE40080004038B5104B0546D3F840310C46D7
S214004FF403F00303022B0BD0032B0DD0012B0FD190
S21400500401F0C2F9082305B1286004B1237038BD45
S21400501401F0C0F90723F6E701F0B9F90923F2E72E
S21400502400231846EFE700BF0080004038B5104B59
S2140050340546D3F860310C4603F00303022B0BD06D
S214005044032B0DD0012B0FD101F09EF9082305B1D7
S214005054286004B1237038BD01F09CF90723F6E7F5
S21400506401F095F90923F2E700231846EFE700BF9D
S2140050740080004038B5134B0546D3F800320C4682
S21400508403F00703013B032B18D8DFE803F0020AFA
S2140050940E1201F079F9082305B1286004B12370D3
S2140050A438BD01F077F90723F6E701F070F9092314
S2140050B4F2E701F0EDF80C23800AEDE7002318462A
S2140050C4EAE700BF0080004038B5134B0546D3F826
S2140050D408320C4603F00703013B032B18D8DFE81D
S2140050E403F0020A0E1201F04FF9082305B12860F6
S2140050F404B1237038BD01F04DF90723F6E701F03B
S21400510446F90923F2E701F0C3F80C23800AEDE719
S21400511400231846EAE700BF0080004038B5104B6D
S2140051240546D3F840320C4603F00303022B0BD09B
S214005134032B0DD0012B0FD101F026F9082305B15E
S214005144286004B1237038BD01F024F90723F6E77C
S21400515401F01DF90923F2E700231846EFE700BF24
S2140051640080004038B5104B0546D3F800310C4695
S21400517403F00303022B0BD0032B0DD0012B0FD10E
S21400518401F09CF8032305B1286004B1237038BDF0
S21400519401F000F90723F6E701F0ACF80623F2E77E
S2140051A401230020EFE700BF0080004041F6713283
S2140051B40F4B10B5D969DA639A680E4C22F4401284
S2140051C4A04288BF42F480129A600B4A0B4CD2F875
S2140051D41832A04223F0020388BF43F0020301F40E
S2140051E48031C2F8183211B10022014BDA6310BDC7
S2140051F400000340C017530200C0074080F0FA02C4
S21400520408B501F057F8BDE80840FFF7CFBF000027
S21400521402280CD007D8012814D10B4B186FC0F302
S214005224013001307047032807D00E28F4E7064BF8
S214005234D3F89000C0F30460F3E7034B186FC0F391
S2140052448020EEE70020ECE700800040002307B54E
S2140052540193242817D8DFE800F0131A1D262B35EF
S2140052643A3F44494E5358661A3F1616441A262B9C
S21400527426351A3F26663A3A3A3A262626494E00F4
S21400528400F0ECFF0190019803B05DF804FB00F019
S214005294FFFFF7E700F0E2FF02460220FFF7B8FF41
S2140052A4B2FBF0F0EEE700F0F3FF02460320F5E76A
S2140052B400F0EEFF02460320FFF7AAFFB2FBF0F071
S2140052C44008DFE7002101A8FFF764FEDBE70021C2
S2140052D401A8FFF737FED6E7002101A8FFF782FEF4
S2140052E4D1E7002101A8FFF7A1FECCE7002101A821
S2140052F4FFF7C0FEC7E7002101A8FFF7E5FEC2E7F7
S214005304002101A8FFF72EFFBDE7094BD3F8803034
S21400531403F00303022BBAD0032B01D00020B1E71D
S21400532400F0EEFFAEE7002101A8FFF7F7FEAAE7BC
S2140053340080004002280AD002D8012804D0704712
S21400534403280FD00E2815D1084600F02BB80A4AB9
S2140053540139D2F8903023F0F85343EA0161C2F8D9
S21400536490107047044A0139136F23F4806343EAAC
S21400537481211167704700BF00800040022103208E
S214005384FFF7D8BF08B50120FFF760FFBDE8084067
S214005394034988428CBF022101210320FFF7CABFBC
S2140053A480F0FA0210B50446FFF72AFFFFF7E6FF7F
S2140053B4074A013C106F20F4405040EA043010675E
S2140053C400F066FFFFF7F2FEBDE81040FFF7DABF15
S2140053D400800040002307B58DF80730242822D823
S2140053E4DFE800F013212121212C32383E444A50B4
S2140053F45669213821213E212121212C2138216979
S21400540432323232212121444A002E4B1B6F03F0E4
S2140054140703013B032B06D8DFE803F00E020A0C51
S21400542404238DF807309DF8070003B05DF804FBED
S2140054340323F6E70623F4E70223F2E70DF1070158
S2140054440020FFF7A7FDEEE70DF107010020FFF7A8
S21400545479FDE8E70DF107010020FFF7C3FDE2E759
S2140054640DF107010020FFF7E1FDDCE70DF1070170
S2140054740020FFF7FFFDD6E70DF107010020FFF738
S21400548423FED0E70DF107010020FFF76BFECAE705
S2140054940C4BD3F8803003F00303022B03D0032B0A
S2140054A405D00023BDE700F0F3FE0B23B9E700F0B8
S2140054B427FF0523B5E70DF107010020FFF72EFEB1
S2140054C4B1E700BF0080004070B50C46242848D8D9
S2140054D4DFE810F0250047004700470047005B0060
S2140054E46C007D008E009F00B000C100D200E30077
S2140054F447007D00470047008E00470047004700EE
S21400550447005B0047007D004700E3006C006C002A
S2140055146C006C004700470047009F00B0008B1EDD
S214005524042B2FD8DFE803F02B1E032E28000025BB
S2140055340226FFF765FEFFF721FF604A136F23F08C
S21400554407033343136700F0A3FEFFF72FFEFFF7AE
S21400555419FF35B9032C04D142F228030121584A15
S214005564D15070BD41F228020121554B03269D6A95
S2140055749950C5F34005DCE700250426D9E7002545
S2140055840126D6E700252E46D3E78C1EE4B20B2C64
S2140055948CBF00214B4B494A98BF195DD2F8803125
S2140055A423F003030B43C2F88031DAE78C1EE4B21F
S2140055B4032C8CBF0021444B404A98BF195DD2F897
S2140055C4203123F007030B43C2F82031C9E7CC1F70
S2140055D4E4B2022C8CBF00213C4B384A98BF195DBC
S2140055E4D2F8403123F003030B43C2F84031B8E746
S2140055F4CC1FE4B2022C8CBF0021354B2F4A98BF37
S214005604195DD2F8603123F003030B43C2F860310E
S214005614A7E7CC1FE4B2052C8CBF00212D4B274AEC
S21400562498BF195DD2F8003223F007030B43C2F883
S214005634003296E7CC1FE4B2052C8CBF0021264B23
S2140056441E4A98BF195DD2F8083223F007030B43AD
S214005654C2F8083285E7CC1EE4B2042C8CBF0021C5
S2140056641E4B164A98BF195DD2F8003123F0030387
S2140056740B43C2F8003174E705290CD00B290CBF84
S214005684022100210D4AD2F8803023F003030B4395
S214005694C2F8803065E70321F4E7CC1FE4B2022C9D
S2140056A48CBF00210E4B054A98BF195DD2F84032D4
S2140056B423F003030B43C2F8403252E70080004055
S2140056C400C000409CC50200A8C50200ACC502008C
S2140056D4ACC50200AFC50200AFC50200B5C50200E6
S2140056E4ACC50200F8B504460020FFF773FE032895
S2140056F47BD045F60E03424A0221C2F8803041F2BE
S2140057042803D15042F228030121D150916D11F49F
S2140057148031FBD1637820781B0543EA0063A079C7
S214005724374E0343E078657C43EA0043207943EA36
S2140057340033607943EA80131361237AE0791B0609
S21400574443EA8063E07A0343607A43EA0043A07A3C
S21400575443EA00239361637B126A002B18BF082177
S214005764207B22F00D0243EA020343EA800341EA67
S2140057740301A37B31624FEA4317E37B207C4FEAA5
S2140057840311334632D1B26A22F0330242F00102E8
S2140057943A430A43B2621B4A996D32EA0101FBD1CD
S2140057A441F2280202219950154A936D5B00FCD4FD
S2140057B41169A37821F4700141EA0351116141F2A1
S2140057C418034FF00041D15018B942F228030221C1
S2140057D4D15025B942F228030121094AD150A37CAD
S2140057E41BB1074B084AC3F88020F8BDB36A23F000
S2140057F433032B433B430B4343EA4003B362EEE7D6
S21400580400C0004003000140F1A7FFFFEFF3108043
S21400581472B6704700B962B67047302383F31188B6
S2140058247047002383F311887047EFF31180302309
S21400583483F31188704780F311887047EFF3108361
S214005844DB0706D4EFF311802F2894BF0020012035
S2140058547047012070470000054A410900F01F0305
S21400586452F82100D840C04300F00100704700BF42
S21400587400E100E010B50446EFF31083DB0733D4F1
S214005884FFF7EAFF00282ED1002CABBF04F16044DA
S214005894164B04F5614404F00F04ACBF94F80023DF
S2140058A41A5D1209EFF3118313B1B2EB131F1BD267
S2140058B40F4C6368C3F30803ABB1103BDBB259B2B9
S2140058C40029B5BF03F00F0301F16043043B03F561
S2140058D46143B6BF1B1993F80003187E0009824281
S2140058E434BF0020012010BD0120FCE714ED00E0C9
S2140058F400ED00E070477047084A10B51369044687
S21400590443F004031361FFF7F5FF30BFFFF7F3FF1F
S2140059141CB9BDE8104000F0BBBC10BD00ED00E0B3
S214005924FFF7EABF4FF040234AF6E850DA6ED96E26
S21400593422F0030242F0020241F003011866DA661E
S214005944D966DA66D966DA66D966DA66D966DA6652
S21400595470474FF04022D36E017923F030030B4397
S214005964D366704770470000072A70B510D8032422
S2140059749500184EAC403460A840A6F580563060BA
S214005984154801F003010460A940A0F580500160A9
S21400599412491348002B14BF0B460346012101FA93
S2140059A402F21A609DF810000E490F4B002808BF3B
S2140059B40B461A6042F220430C499DF81400CA5064
